:020000040800F2
:1000000000A00020FD09000815810008F10A000881
:1000100017810008198100081B81000800000000FA
:100020000000000000000000000000001D8100082A
:100030001F810008000000002181000823810008C2
:10004000450A0008450A0008450A0008450A000854
:10005000450A0008450A0008450A0008450A000844
:10006000450A0008450A0008D1580008450A00085A
:10007000450A0008450A0008B5340008F94C000894
:10008000450A0008C5600008450A0008450A00083E
:1000900025810008450A0008450A00082159000882
:1000A000450A0008450A0008450A0008450A0008F4
:1000B000490A0008450A0008E15100082D6F0008B0
:1000C000450A0008450A0008450A0008450A0008D4
:1000D000450A0008C13300086D54000811340008B7
:1000E00071590008450A000829810008450A0008DE
:1000F000450A0008450A0008450A0008450A0008A4
:10010000000000000000000000000000450A000898
:10011000450A0008450A0008211400082D5200086D
:10012000450A0008450A0008450A0008450A000873
:10013000450A0008450A0008000000000000000011
:10014000450A0008450A0008450A000800000000AA
:10015000000000000000000000000000000000009F
:100160000000000000000000450A0008450A0008E1
:10017000450A000800000000000000000000000028
:0801800000000000450A000820
:1001880081F0004102E000BF83F0004330B54FEA40
:1001980041044FEA430594EA050F08BF90EA020FAD
:1001A8001FBF54EA000C55EA020C7FEA645C7FEA40
:1001B800655C00F0E2804FEA5454D4EB5555B8BF63
:1001C8006D420CDD2C4480EA020281EA030382EAD4
:1001D800000083EA010180EA020281EA0303362D66
:1001E80088BF30BD11F0004F4FEA01314FF4801C39
:1001F8004CEA113102D0404261EB410113F0004F4B
:100208004FEA03334CEA133302D0524263EB430301
:1002180094EA050F00F0A780A4F10104D5F1200E9F
:100228000DDB02FA0EFC22FA05F2801841F10001FA
:1002380003FA0EF2801843FA05F359410EE0A5F1CE
:1002480020050EF1200E012A03FA0EFC28BF4CF0FF
:10025800020C43FA05F3C01851EBE37101F00045B5
:1002680007D54FF0000EDCF1000C7EEB00006EEBC2
:100278000101B1F5801F1BD3B1F5001F0CD349084C
:100288005FEA30004FEA3C0C04F101044FEA4452A3
:1002980012F5800F80F09A80BCF1004F08BF5FEA2A
:1002A800500C50F1000041EB045141EA050130BD0A
:1002B8005FEA4C0C404141EB010111F4801FA4F1AD
:1002C8000104E9D191F0000F04BF01460020B1FA02
:1002D80081F308BF2033A3F10B03B3F120020CDA3A
:1002E8000C3208DD02F1140CC2F10C0201FA0CF018
:1002F80021FA02F10CE002F11402D8BFC2F1200C7D
:1003080001FA02F120FA0CFCDCBF41EA0C01904032
:10031800E41AA2BF01EB0451294330BD6FEA04047B
:100328001F3C1CDA0C340EDC04F11404C4F1200266
:1003380020FA04F001FA02F340EA030021FA04F378
:1003480045EA030130BDC4F10C04C4F1200220FACF
:1003580002F001FA04F340EA0300294630BD21FA0D
:1003680004F0294630BD94F0000F83F4801306BFD3
:1003780081F480110134013D4EE77FEA645C18BFC7
:100388007FEA655C29D094EA050F08BF90EA020F5E
:1003980005D054EA000C04BF1946104630BD91EA56
:1003A800030F1EBF0021002030BD5FEA545C05D159
:1003B8004000494128BF41F0004130BD14F5800498
:1003C8003CBF01F5801130BD01F0004545F0FE410C
:1003D80041F470014FF0000030BD7FEA645C1ABF41
:1003E800194610467FEA655C1CBF0B46024650EA78
:1003F800013406BF52EA033591EA030F41F40021A4
:1004080030BD00BF90F0000F04BF0021704730B529
:100418004FF4806404F132044FF000054FF00001FE
:1004280050E700BF90F0000F04BF0021704730B5BF
:100438004FF4806404F1320410F0004548BF404294
:100448004FF000013EE700BF42004FEAE2014FEAE9
:1004580031014FEA02701FBF12F07F4393F07F4FC4
:1004680081F06051704792F0000F14BF93F07F4FF6
:10047800704730B54FF4607401F0004521F0004139
:1004880020E700BF50EA010208BF704730B54FF0BF
:1004980000050AE050EA010208BF704730B511F0C4
:1004A800004502D5404261EB41014FF4806404F1FC
:1004B80032045FEA915C3FF4DCAE4FF003025FEA7E
:1004C800DC0C18BF03325FEADC0C18BF033202EB06
:1004D800DC02C2F1200300FA03FC20FA02F001FA60
:1004E80003FE40EA0E0021FA02F11444C1E600BFFF
:1004F80070B54FF0FF0C4CF4E06C1CEA11541DBFB2
:100508001CEA135594EA0C0F95EA0C0F00F0DEF87C
:100518002C4481EA030621EA4C5123EA4C5350EA61
:10052800013518BF52EA033541F4801143F48013B2
:1005380038D0A0FB02CE4FF00005E1FB02E506F043
:100548000042E0FB03E54FF00006E1FB03569CF098
:10055800000F18BF4EF0010EA4F1FF04B6F5007F9E
:1005680064F5407404D25FEA4E0E6D4146EB060610
:1005780042EAC62141EA55514FEAC52040EA5E5099
:100588004FEACE2EB4F1FD0C88BFBCF5E06F1ED843
:10059800BEF1004F08BF5FEA500E50F1000041EB7A
:1005A800045170BD06F0004646EA010140EA020027
:1005B80081EA0301B4EB5C04C2BFD4EB0C0541EA49
:1005C800045170BD41F480114FF0000E013C00F35E
:1005D800AB8014F1360FDEBF002001F0004170BD82
:1005E800C4F10004203C35DA0C341BDC04F114049B
:1005F800C4F1200500FA05F320FA04F001FA05F227
:1006080040EA020001F0004221F0004110EBD370F3
:1006180021FA04F642EB06015EEA430E08BF20EA1F
:10062800D37070BDC4F10C04C4F1200500FA04F3C2
:1006380020FA05F001FA04F240EA020001F0004154
:1006480010EBD37041F100015EEA430E08BF20EAC7
:10065800D37070BDC4F1200500FA05F24EEA020E0F
:1006680020FA04F301FA05F243EA020321FA04F03E
:1006780001F0004121FA04F220EA020000EBD370F5
:100688005EEA430E08BF20EAD37070BD94F0000FF5
:100698000FD101F00046400041EB010111F4801F29
:1006A80008BF013CF7D041EA060195F0000F18BFDA
:1006B800704703F00046520043EB030313F4801F16
:1006C80008BF013DF7D043EA0603704794EA0C0FD0
:1006D8000CEA135518BF95EA0C0F0CD050EA4106E6
:1006E80018BF52EA4306D1D181EA030101F0004163
:1006F8004FF0000070BD50EA410606BF104619468B
:1007080052EA430619D094EA0C0F02D150EA013696
:1007180013D195EA0C0F05D152EA03361CBF1046D7
:1007280019460AD181EA030101F0004141F0FE4176
:1007380041F470014FF0000070BD41F0FE4141F4FA
:10074800780170BD70B54FF0FF0C4CF4E06C1CEAFA
:1007580011541DBF1CEA135594EA0C0F95EA0C0FAF
:1007680000F0A7F8A4EB050481EA030E52EA03356A
:100778004FEA013100F088804FEA03334FF080558B
:1007880045EA131343EA12634FEA022245EA1115B8
:1007980045EA10654FEA00260EF000419D4208BF69
:1007A800964244F1FD0404F5407402D25B084FEA16
:1007B8003202B61A65EB03055B084FEA32024FF4C2
:1007C80080104FF4002CB6EB020E75EB030E22BF1F
:1007D800B61A754640EA0C005B084FEA3202B6EBDF
:1007E800020E75EB030E22BFB61A754640EA5C008E
:1007F8005B084FEA3202B6EB020E75EB030E22BF1E
:10080800B61A754640EA9C005B084FEA3202B6EB1E
:10081800020E75EB030E22BFB61A754640EADC00DD
:1008280055EA060E18D04FEA051545EA16754FEA3F
:1008380006164FEAC30343EA52734FEAC2025FEA5D
:100848001C1CC0D111F4801F0BD141EA00014FF0EC
:1008580000004FF0004CB6E711F4801F04BF0143BD
:100868000020B4F1FD0C88BFBCF5E06F3FF6AFAED9
:10087800B5EB030C04BFB6EB020C5FEA500C50F169
:10088800000041EB045170BD0EF0004E4EEA1131EC
:1008980014EB5C04C2BFD4EB0C0541EA045170BDF3
:1008A80041F480114FF0000E013C90E645EA060E37
:1008B8008DE60CEA135594EA0C0F08BF95EA0C0F65
:1008C8003FF43BAF94EA0C0F0AD150EA01347FF4AD
:1008D80034AF95EA0C0F7FF425AF104619462CE784
:1008E80095EA0C0F06D152EA03353FF4FDAE1046E7
:1008F800194622E750EA410618BF52EA43067FF438
:10090800C5AE50EA41047FF40DAF52EA43057FF4C7
:10091800EBAE12E74A0011D212F5001211D20DD532
:100928006FF47873B3EB62520ED44FEAC12343F0ED
:10093800004343EA505323FA02F070474FF0000097
:10094800704750EA013002D14FF0FF3070474FF046
:10095800000070474FEA4102B2F1E04324BFB3F50B
:10096800001CDCF1FE5C0DD901F0004C4FEAC0021E
:100978004CEA5070B2F1004F40EB830008BF20F002
:100988000100704711F0804F21D113F13872BCBFBC
:1009980001F00040704741F480114FEA5252C2F111
:1009A8001802C2F1200C10FA0CF320FA02F018BF5A
:1009B80040F001004FEAC1234FEAD32303FA0CFCAD
:1009C80040EA0C0023FA02F34FEA4303CCE77FEA3C
:1009D800625307D150EA01331EBF4FF0FE4040F486
:1009E8004000704701F0004040F0FE4040F4000035
:1009F800704700BF002103E00B4B5B5843500431A4
:100A08000A480B4B42189A42F6D30A4A02E00023DE
:100A180042F8043B084B9A42F9D307F0F9FA0AF076
:100A28003DFD01F001FAFEE774BB0008000000205C
:100A38006802002068020020A81E0020FEE70000CF
:100A48004FF0804310B51A69D40741BF4FF6FE72C4
:100A58001A61184A13884FF0804444BF0133138049
:100A68002369980704D54FF6FD73236104F0FAFD56
:100A78002369590706D54FF080434FF6FB721A6178
:100A880004F0B4FF4FF0804423691A0704D54FF6E9
:100A9800F773236104F0FAFF2369DB0608D54FF0EA
:100AA80080434FF6EF721A61BDE8104005F00EB8AA
:100AB80010BD00BF220400204FF08043586A7047E1
:100AC8004FF080435A6A4FF080435B6A9B1A834217
:100AD800F9D3704708B508F003FA07F099FA01202E
:100AE800BDE8084008F026BA08B5094C094822783C
:100AF80012F001024FF0020118BF012208F034F988
:100B08000548FFF7DDFF237801332370EDE700BFC9
:100B1800700600200004004820A1070001380A28B8
:100B280000F2C880DFE800F0061429445881A7A91C
:100B3800ADAFB300F6EE007AB4EEE70AF1EE10FAC4
:100B48005D4BCCBF012200221A7001225B4B12E0E0
:100B5800F6EE007AB4EEE70AF1EE10FA40F3AA8056
:100B6800574B1A78022A05D1564A92F90020002AD2
:100B780040F0A08001221A707047F6EE007AB4EEB9
:100B8800E70AF1EE10FA40F395804E4B93F90030E6
:100B9800002B40F08F804C4BB3F90030002B00F055
:100BA80089804A4B1B78002B00F0848002220BE0DE
:100BB800F6EE007AB4EEE70AF1EE10FA7ADD404B71
:100BC8001B78022B02D003223D4BD4E73D4B93F90F
:100BD8000030002BF7D07047FEEE007AB4EEE70A3B
:100BE800F1EE10FAF6EE007A10DD354B1A78022A8B
:100BF80004D1344A92F90020002A56D1B4EEE70A0B
:100C08000122F1EE10FA1A70DDDC7047B4EEE70A43
:100C1800F1EE10FA4EDD2A4B1B78022BD3D1294B6B
:100C280093F90030002BCED07047FEEE007AB4EE78
:100C3800E70AF1EE10FA0ADD214B1A78022A04D1EC
:100C4800204A92F90020002A34D101221A70F6EEC7
:100C5800007AB4EEE70AF1EE10FA2BDD194B93F99E
:100C680000303BBB184BB3F900301BB3174B1B7854
:100C7800002B9BD17047164B00E0164B83ED000A02
:100C88007047134B00E0134B83ED010A7047F6EEF3
:100C9800007AB4EEE70AF1EE10FA0F484FF400516B
:100CA800CCBF0122002208F05FB8B4EEE70AF1EEEB
:100CB80010FAB4DC704700BF680600206E060020FA
:100CC800650600206D0600201A0400205D0600203D
:100CD800DC020020740200200004004870B5184CA3
:100CE8002678022E03D1174B93F900300BB9002355
:100CF8002370154B154D00221A70154B95ED040AFB
:100D08001878FFF70BFF134B95ED050A1878FFF7D6
:100D180005FF114B95ED060A1878FFF7FFFE0F4BFC
:100D280095ED070A1878FFF7F9FE2378032B05D10C
:100D3800032E1FBF0A4B9A680A4B1A6070BD00BF8A
:100D4800650600206D0600206E0600209C16002017
:100D58009816002099160020D4160020F0160020BE
:100D6800BC16002060030020F8B5DA49DA4B0A7A8D
:100D780093ED006A8B7ADFEDD97A333314321B0492
:100D880043EA0223CA7A66321A434B7A0C3B42EA98
:100D98000363D34A126893424FF0804308BFF0EED2
:100DA800467A586ACF4B1C684FF08042516A091B3B
:100DB800B1F57F7FF8D3516A1960CB4B546AB3F908
:100DC8000030241AE3B1C94BD3ED006AB6EE007ABD
:100DD80066EE876AC3ED006AD3ED016A66EE876A3C
:100DE800C3ED016AD3ED026A66EE876AC3ED026A53
:100DF800BF4B1B78022B1CBFF0EE477AE6EE077A52
:100E0800BC4BBD4A188803B2062B00F24982DFE8C2
:100E180013F007006D00A000D90012018501E2015E
:100E2800B24D9FEDB65AD5ED006AD5ED015A9FED4A
:100E3800B47AB44B37EEA66AF1EE654AA4EE856A39
:100E480003211170B0EE474AA6EE074AAE4977EE85
:100E5800E66ABDEEC46AE4EE856A91F9006083ED46
:100E6800006AB0EE476AA6EE876A012E1946FDEEC3
:100E7800C66AC3ED016ADFEDA56AE5EEA67AF0EE73
:100E8800476AE7EE876AFDEEE67AC3ED027A14BF99
:100E980001234FF0FF3306EE903A9D4BD5ED027AD1
:100EA800B3F90030F8EEE66A66EEA76A07EE903A04
:100EB800F8EEE77AE6EE877A9FED967AF4EEC77A4F
:100EC800F1EE10FA0BD49FED947AF4EEC77AF1EEB6
:100ED80010FA07DCFDEEE77A17EE903A04E04FF4DB
:100EE800487301E040F698030B61DCE17F499FED10
:100EF800847A91ED016AD1ED025A824B77EEC66A87
:100F0800B0EE475A76EEE56AF0EE474AA6EE875A03
:100F180037EE866AFDEEC56A36EE656AC3ED006A8D
:100F2800D1ED006A37EEA65A77EEE67A35EE255A05
:100F380077EEA57AE5EE074ABDEEE45A83ED015A4D
:100F4800B0EE475AA6EE075ABDEEC56A83ED026AAF
:100F580068E0664B9FED6A7AD3ED006A93ED015A1B
:100F6800D3ED025A674B37EEA66AB0EE474A76EEE3
:100F7800454A77EEE67A74EEE54A77EEC56AA4EE5E
:100F8800874A76EEA56AFDEEC44A77EE857AC3ED08
:100F9800004AF0EE474AE6EE874A77EEE57AFDEE3C
:100FA800E46A36EE056AC3ED016AF0EE476AE7EED9
:100FB800876A36EE256AFDEEE67AA6EE077AC3ED75
:100FC800027A31E049499FED4E7A91ED006AD1ED00
:100FD800016A4C4B77EE865AB0EE475A75EEE65AE0
:100FE80037EEC66AA5EE875A36EE666AFDEEC55A32
:100FF80077EEA67AC3ED005AF0EE475AE6EE075AA6
:10100800D1ED026ABDEEE56AF0EE475A83ED016A5A
:1010180037EEE66A77EEA67AE6EE075ABDEEE56A9F
:1010280083ED026AA7EE877ABDEEC77A83ED037A6D
:101038000423137037E12D4B9FED304AD3ED006A3E
:10104800D3ED014A93ED026A9FED2D7A2D4B77EE91
:10105800A65AF1EE643AE3EE845AB0EE473A35EE1A
:10106800C65A75EE865AA5EE073A77EEE66ABDEEE1
:10107800C35AE3EE846A83ED005AB0EE475AA5EEF0
:10108800875AFDEEC55AB0EE475AC3ED015A76EEBF
:10109800C65A76EE866AA5EE875AFDEEC55AC3EDA6
:1010A800025AF0EE475AE6EE875AFDEEE56AF0EE90
:1010B800475AC3ED036ADFED156AE4EEA67A77EEC8
:1010C800866A77EEC67AE6EE875AFDEEE56AC3EDE4
:1010D800046A7DE0161700209C160020000000001E
:1010E8008C030020340300201A040020240300206D
:1010F80065060020880000206C060020C3F5283F04
:1011080000007A44C40200205A060020713DAA3F1C
:10111800A80000200000484400800945AF499FED21
:10112800B07AD1ED015AD1ED026AAE4B91ED003A99
:10113800DFEDAD3A37EEE56AB0EE475A36EE266A8D
:10114800B1EE654AA6EE075AF0EE472ABDEEC56A2B
:10115800B6EE005A83ED006AB0EE676AA3EE636AE2
:10116800F0EE464AE4EE054AA5EE856A74EEE64AD4
:1011780036EE266AE4EE872AFDEEE24AC3ED014A1E
:10118800F0EE474AE6EE074ABDEEE46AF0EE474A5B
:1011980083ED026A37EEA56AE3EE237A36EE666AD5
:1011A800E6EE074ABDEEE46A83ED036AB0EE676ACD
:1011B800A5EE856AF0EE475A36EE266AE4EE057A21
:1011C800E6EE075A77EEE67ABDEEE56A83ED046A45
:1011D800A7EE877A5DE0814BDFED835A93ED005AE5
:1011E800D3ED014A93ED026A9FED7D7A7D4BB6EE11
:1011F800003AF0EE676AE5EE436AF1EE643AB0EE63
:10120800664AA3EEA54AF0EE472A34EE064AE4EE13
:10121800A56AE4EE072A76EE866ABDEEE24AF0EEAB
:10122800472A83ED004A37EEC54A34EE464AE4EED3
:10123800072ABDEEE24A83ED014AB0EE474AA6EE20
:10124800874AFDEEC46AC3ED026AF0EE676AE5EE0E
:10125800036A77EE857AB0EE664AA4EEA54AE3EE15
:10126800A56A74EE464A77EE867AB0EE474AB0EE43
:10127800475AA4EE874AA7EE875A76EEC66AFDEE6D
:10128800C44AA6EE877AFDEEC57AC3ED034AC3EDDC
:10129800047ABDEEC77A83ED057A0623137094E0CD
:1012A800032B00F39280514BD3ED007AF5EEC07A10
:1012B800F1EE10FA09DD9FED4E7AF4EEC77AF1EE01
:1012C80010FA4CBF0125002508E09FED4A7AF4EE9C
:1012D800C77AF1EE10FACCBF0125002546490DB1B9
:1012E8005D684D6093ED017AB5EEC07AF1EE10FAC3
:1012F80009DDDFED3F6AB4EEE67AF1EE10FA4CBF95
:101308000123002308E0DFED3B6AB4EEE67AF1EE54
:1013180010FACCBF012300230BB1C1ED007A314D87
:101328009FED366A364FDFED375ADFED377A374EA5
:10133800B2EE005A30B397ED007AD1ED006AF0EEC4
:10134800674AE7EE254A66EE856AB0EE647AD6ED1E
:10135800004AA6EEA47AB4EEC67AF1EE10FA0BD4DF
:10136800DFED2B6AB4EEE67AF1EE10FA07DCBDEE9B
:10137800C77A17EE103A04E04FF4487301E040F6DC
:1013880098032B61D7ED016A91ED017AE6EEA57A13
:1013980027EE057AD6ED016AE7EE267AF4EEC67AEC
:1013A800F1EE10FA0BD49FED1A7AF4EEC77AF1EE4B
:1013B80010FA07DCFDEEE77A17EE903A04E04FF4F6
:1013C800487301E040F698036B611178054806F010
:1013D80029FB104B00225A622046F8BD2403002046
:1013E80000007A44C4020020C3F5483FBC16002020
:1013F80000008C4200008CC2E40200200000484437
:10140800DC0200200000FA430080BB447402002084
:10141800008009450010004008B506F0C9FDBDE888
:10142800084005F0FDBD0000CE49DFEDCF7A91ED13
:10143800007ACE4ACE4B12881A8027EE277A9FED83
:10144800CD6ABCEEC77A17EE102A91ED017A5A8060
:1014580027EE277ABCEEC77A17EE102A91ED027AAA
:10146800C5499A8027EE277ABCEEC77A17EE102A6C
:1014780091ED007ADA8027EE277ABCEEC77A17EE6C
:10148800102A91ED017A1A8127EE277ABCEEC77AE5
:1014980017EE102A91ED027AB8495A8127EE277A79
:1014A800BCEEC77A17EE102A91ED007A9A8127EEE2
:1014B800277ABCEEC77A17EE102A91ED017ADA8105
:1014C80027EE277ABCEEC77A17EE102A91ED027A3A
:1014D800AB491A8227EE277ABCEEC77A17EE102A94
:1014E80091ED007A5A8227EE277ABCEEC77A17EE7A
:1014F800102A91ED017A9A8227EE277ABCEEC77AF4
:1015080017EE102A91ED027A9E49DA8227EE277AA1
:10151800D1ED006ABCEEC77A17EE102A9FED9A7AD1
:101528001A83F0EE475AE6EE865AFCEEE56AF0EECC
:10153800475A16EE902AD1ED016A94495A83E6EE8D
:10154800865AB0EE476AFCEEE56A16EE902AD1EDAF
:10155800006A9A8366EEA76AFCEEE66A16EE902A9F
:10156800D1ED016ADA8366EEA76AFCEEE66A16EE4A
:10157800902A1A84D1ED026A854966EEA76AFCEEC4
:10158800E66A16EE902AD1ED006A5A8466EEA76ADA
:10159800FCEEE66A16EE902AD1ED016A9A8466EEB0
:1015A800A76AFCEEE66A16EE902AD1ED026A79493E
:1015B800DA8466EEA76AFCEEE66A16EE902AD1EDAA
:1015C800006A1A8566EEA76AFCEEE66A16EE902AAD
:1015D800D1ED016A5A8566EEA76AFCEEE66A16EE58
:1015E800902AD1ED026A9A8566EEA76AFCEEE66A51
:1015F80016EE902ADA85684A12881A86674A12888F
:101608005A86674A12889A86664A1278DA86664A3D
:1016180012881A87654A12885A87654A12889A87F3
:10162800644A1288DA87644A1288A3F84020634A19
:101638001288A3F84220624A92F90020A3F84420B5
:10164800604A1188A3F8461051889288A3F84A2066
:101658005D4AA3F8481012785C49A3F84C205C4A0C
:10166800D1ED006A1278A3F84E20A6EEA76A594A6F
:101678001278A3F85020584AFCEEC66A1278A3F8EC
:10168800522016EE902AD1ED016A5449A3F854204D
:10169800B0EE476AA6EEA76AFCEEC66AB0EE476AE5
:1016A80016EE902AD1ED006AA3F85620A6EEA76A96
:1016B800FCEEC66A16EE902AD1ED016AA3F858200E
:1016C800A6EEA77A4649BCEEC77A17EE102AA3F809
:1016D8005A20444A92ED007A27EE277ABCEEC77A60
:1016E80017EE102A91ED007AA3F85C2027EE277AEE
:1016F8003D4ABCEEC77A1278A3F85E2017EE102A8E
:1017080091ED017AA3F8602027EE277ABCEEC77A1C
:1017180017EE102A91ED027AA3F8622067EE277A75
:10172800FCEEE77A17EE902AA3F864202F4A128875
:10173800A3F866202E4A1278A3F868202D4A12686A
:10174800A3F86C20110C2C4AA3F86A101278A3F89D
:101758006E202A4A1278A3F87020294A1178527804
:1017680050E000BF9C00002000007A445A0000208E
:10177800280400200000C8427C00002070000020DF
:10178800340000209802002000FEFF4610000020D0
:1017980090000020000000204200002020040020CB
:1017A80088000020ED0800205800002032000020AA
:1017B800620000204800002060000020A8000020EF
:1017C8005A0600200E04002098160020DC02002093
:1017D80099160020D4160020F0160020740200206C
:1017E8004C000020440000204B000020140400207E
:1017F8001D0000208C030020311600206206002006
:101808001E000020A3F87420134AA3F87210117860
:10181800A3F876105178A3F878109178D278A3F8C5
:101828007C200E4AA3F87A101278A3F87E200C4A7E
:101838001188A3F8801051889288A3F88420094A57
:10184800A3F882101178A3F8861051789278A3F83B
:101858008810A3F88A2070478A0000206B060020B1
:101868002C0000205C000020D14BD24A198811803E
:101878005988DFEDD17AD14A9FEDD16A07EE101A67
:10188800B8EEC77A998887EE277A82ED007A07EE54
:10189800101AB8EEC77AD98887EE277A82ED017ACE
:1018A80007EE101AB8EEC77A198987EE277A82ED03
:1018B800027A07EE101AB8EEC77AC24A598987EE3B
:1018C800277A82ED007A07EE101AB8EEC77A99895E
:1018D80087EE277A82ED017A07EE101AB8EEC77AFA
:1018E800D98987EE277A82ED027A07EE101AB8EEC8
:1018F800C77AB54A198A87EE277A82ED007A07EE09
:10190800101AB8EEC77A598A87EE277A82ED017ADB
:1019180007EE101AB8EEC77A998A87EE277A82ED11
:10192800027A07EE101AB8EEC77AA84AD98A87EE63
:10193800277A82ED007A07EE101AB8EEC77A198B6B
:1019480087EE277A82ED017A07EE101AB8EEC77A89
:101958009F4987EE277A82ED027A5A8BA2F5FF42D9
:101968007F3A07EE102A9A8BA2F5FF427F3AF8EEEB
:10197800C76A07EE102AB8EEC77AC6EE866A954A95
:1019880087EE067AC1ED006A81ED017AD98B07EE00
:10199800101AB8EEC77A198C87EE277A82ED007A8A
:1019A80007EE101AB8EEC77A87EE277A82ED017A29
:1019B800598C07EE101AB8EEC77A998C87EE277AF9
:1019C80082ED027A07EE101AB8EEC77A824AD98CED
:1019D80087EE277A82ED007A07EE101AB8EEC77AFA
:1019E800198D87EE277A82ED017A07EE101AB8EE84
:1019F800C77A598D87EE277A82ED027A07EE101A98
:101A0800B8EEC77A754A998D87EE277A82ED007A03
:101A180007EE101AB8EEC77AD98D87EE277A82EDCD
:101A2800017A07EE101AB8EEC77A198E87EE277A70
:101A380082ED027A6A4A11806A4A598E11806A4A8E
:101A4800998E11806949DA8E0A8069490A70694A53
:101A5800198F1180684A598F1180684A998F1180AF
:101A68006749DA8F0A8067490A80674AB3F84010E5
:101A78001180664AB3F842101180654AB3F84410E1
:101A88001170644AB3F846101180B3F848105180B9
:101A9800B3F84A109180604AB3F84C1011705F4A4D
:101AA800B3F84E1011705E4AB3F8501011705D4AC9
:101AB800B3F852101170B3F854205B49A2F5FF42F5
:101AC8007F3A07EE102AB8EEC77AB3F8562087EEA9
:101AD800277AA2F5FF427F3A81ED007A07EE102AB5
:101AE800B8EEC77AB3F8582087EE277AA2F5FF42F6
:101AF8007F3A81ED017A07EE102AB8EEC77AB3F87B
:101B08005A204A4987EE277AA2F5FF427F3A81EDAB
:101B1800007A07EE102AB8EEC77AB3F85C2087EE91
:101B2800277A81ED017A07EE102AB8EEC77A404A83
:101B3800B3F85E1087EE277A82ED007A3D4A11707D
:101B4800B3F860103C4A07EE101AB8EEC77AB3F83B
:101B5800621087EE277A82ED007A07EE101AB8EE47
:101B6800C77A87EE277A82ED017AB3F8641007EE18
:101B7800101AB8EEC77AB3F86610C7EE277AC2ED26
:101B8800027A2E4A11802E4AB3F868101170B3F801
:101B98006A10B3F86C2042EA01422A490A602A4ACC
:101BA800B3F86E101170294AB3F8701011704FE035
:101BB800280400205A00002000007A449C000020DD
:101BC8000000C8427C000020700000203400002083
:101BD8009802002010000020900000200000002043
:101BE8004200002020040020880000201A04002061
:101BF800ED0800205800002032000020620000207C
:101C08000C0000204800002060000020A8000020F0
:101C18005A0600200E04002098160020991600206D
:101C2800D4160020F0160020DC02002074020020E8
:101C3800440000204B0000204C0000201404002029
:101C48001D0000208C0300203116002062060020B1
:101C5800164AB3F872101170B3F874105170144A20
:101C6800B3F876101170B3F878105170B3F87A1091
:101C78009170B3F87C10D1700E4AB3F87E101170D1
:101C88000D4AB3F880101180B3F882105180B3F870
:101C980084109180094AB3F886101170B3F888103F
:101CA800B3F88A3051709370704700BF1E0000204F
:101CB8008A0000206B0600202C0000205C00002019
:101CC80070B5FFF7B1FB3148002107F0C5FA30487D
:101CD800002107F0D9FA00214FF4E92007F0C8FAEB
:101CE80006F028FF352006F063FF2A4806F08CFF2F
:101CF8000428054610D1274C274A04F17843A3F558
:101D0800FE332046D15A06F09DFF0428054603D12C
:101D1800224B02349C42EFD106F01AFF20490B787F
:101D2800092B0C4618D91948012107F095FA1848CB
:101D3800012107F0A9FA4FF4E920012107F098FAE8
:101D4800184B1B78DBB9184B18780138C0B203F070
:101D5800CBFA04F0FFF912E0144A15480E4E10446D
:101D6800305A32F8026F864202D001330B70A8E76E
:101D7800104882424FF00003EFD12370D3E7042DBF
:101D880002BF0D4B00221A7070BD00BF0100061083
:101D98001100260000FC010828040020A0FC01080E
:101DA80063060020B612002042000020FEFB010856
:101DB8000204FEF79EFC010866060020054B064A51
:101DC800064958881A4402338852054A9342F6D184
:101DD800FFF74ABDFEFB01080204FEF728040020B5
:101DE8009EFC0108044B1A88044B1B889A4201D1B7
:101DF800FFF7E4BFFFF764BF00FC01085A000020AA
:101E080008B506F0CBFE70B906F094FE06F0A8FE01
:101E1800BB2006F031FF06F0B9FE06F0AFFEBDE8C4
:101E2800084006F095BE08BD2DE9F04F2DED108B4A
:101E38004FF4887087B007F0F9F99048012107F04E
:101E48000BFA8F48012107F01FFA8E48012107F08D
:101E58000FFA00240226012503278B48029602A9BF
:101E68008DF80C508DF80D708DF80E408DF80F40E0
:101E780006F03AFF31462A46834806F075FF4FF4CC
:101E880000568148049604A98DF814508DF81570F1
:101E98008DF816408DF8174006F026FF2246314689
:101EA800794806F061FF04F0B9FE4FF4E13001F023
:101EB800ABF904F0ABFF04F0DDFE05F053FDFFF7CE
:101EC80091FF724A724BB2F900201C7002B11D706A
:101ED800FFF796FF6F4B18780138C0B203F004FA89
:101EE80004F038F96C4B6D4905225A801A81DA8161
:101EF8009A825A831A840B7A03F114028B7A333349
:101F08001B0443EA0223CA7A663213434A7A0C3A1C
:101F180043EA0263019306F06BF906F019F906F03B
:101F280081F908F0B3F85E4B019A1B685D4E5E4C70
:101F38009A4202BF5D4B00221A705D4B1D884FF01C
:101F48008043D3F824B033881BB323780BBB04F049
:101F5800C1FF3220FEF7B4FD56484FF4004106F0A9
:101F6800A3FF012808D14FF0804340F2ED225B6ABD
:101F7800CBEB03039342EFD94FF080435B6ACBEB83
:101F88000303B3F5FA7FE7D3002005F067F801F003
:101F9800E7FA2478002C40F02F873388002B40F094
:101FA800658704F097FF04F0C1FD434B434F1A784F
:101FB800B2BB434AD7ED017A92ED007A77EEC77A41
:101FC800F5EEC07AF1EE10FA07DD9FED3E7AF4EEF9
:101FD800C77AF1EE10FA21DC06E09FED3B7AF4EEC9
:101FE800C77AF1EE10FA19D4D7ED027A92ED017A98
:101FF80077EEC77AF5EEC07AF1EE10FA07DD9FEDBD
:10200800317AF4EEC77AF1EE10FA07DC08E09FEDBA
:102018002E7AF4EEC77AF1EE10FA01D501221A7081
:102028002A4EDFF8988001F09BFAFB68B360284BD2
:102038001C78032C52D1274B9FED278AD3ED027AC7
:1020480027EE888AB0EE480A08F052FAF0EE408A85
:10205800B0EE480A08F088FAD8ED026AD8ED017A9D
:1020680020EE667AA7EEA87A67EE807A86ED007A87
:10207800E6EEA87AC6ED017A36E000BF0100061048
:102088003500260001480700000400481A04002013
:102098005D06002042000020F216002016170020DE
:1020A8008C0300202C010020400000201C00002090
:1020B8006200002000540040600600209C160020AA
:1020C800800200208FC2F53C8FC2F5BC540300206B
:1020D80065060020BC16002035FA8E3CD8F804307E
:1020E8003360D8F808307360AF4BB04E93ED005AA8
:1020F800AF48B049DFF8F082DFF8F0C2DFF8F0E26D
:102108000022F6EC017AF8EC016ADFEDABAAF5EEF5
:10211800C07AF1EE10FAF7EE009AD4BFB1EE677A02
:10212800B0EE677AB0EE696AA7EE666A14F0FD0F42
:1021380027EEAA7AACEC016ABDEEC77ABEEC016A5A
:1021480017EE103A03FB03F306EE903A9FED9B7AE5
:10215800F8EEE66AC6EE876A03D0022A18BFB0EE28
:10216800456AF0EC015A39EEE57AF2EE044A67EE78
:10217800A66A67EE877A86EE247A0132032AE6EEAB
:10218800A57A27EE877AA1EC017ABAD1D7ED006A51
:10219800DFED8BBA8B4BB6EE00CAF4EECC6AF1EEEB
:1021A80010FAC8BF36EECC8AF4EEEB6A1B78D4BFBF
:1021B8009FED858A38EE088AF1EE10FA48BF3BEEAB
:1021C800E68A012B6FD1814B9FED815A1A7807EE71
:1021D800902AB8EE676A86EE056AF4EEC66AF1EEF2
:1021E80010FA19D57B4B1A785B7808EE103A89EE0D
:1021F800866A07EE902AB8EE488AF8EE677A88EE83
:10220800058AC7EE857A26EE266A28EE068A39EE12
:10221800C66AA7EE868A46E05B7807EE903AF8EE43
:10222800677AC7EE857AF4EEE76AF1EE10FA16D50A
:102238009B1A07EE103AB8EEC77A664B87EE057A16
:102248005A789B7876EEC67A89EE877A67EE277A8F
:1022580007EE102AB8EE477A87EE057A17E022DDF6
:10226800C3F1640307EE103AB8EEC77A594B87EE0C
:10227800057A9A78DB7876EEE77A89EE877A67EEE0
:10228800277A07EE102AB8EE477A87EE057A08EE25
:10229800103AB8EE488A88EE058A28EE278A79EE41
:1022A800E77AA7EE278A4C4B1B78012B40F0A280D7
:1022B8004A4A4B4B1088D3ED005A9FED455A49497D
:1022C80007EE900AF8EE677AF2EE043AC7EEA47ABF
:1022D800F4EEE75AF1EE10FA01D50B785CE053887A
:1022E80007EE103AB8EE474A84EE234AF4EEC45A91
:1022F800F1EE10FA21D51B1A07EE103AB8EEC77A9C
:102308000B7887EE237A06EE103A89EE877A4B78B7
:1023180075EEE77AB8EE466A67EE277A07EE103A66
:10232800B8EE477A86EE056AC7EE058A68EEA78A90
:1023380079EEE77AE6EE278A5EE0928807EE902A41
:10234800F8EE677AC7EEA37AF4EEE75AF1EE10FAE0
:1023580021D5D31A06EE103AB8EEC66A4B7886EE47
:10236800237A89EE876A35EEC47A26EE077A06EE76
:10237800103A8B7808EE903AF8EE687AB8EE466A2A
:10238800C7EE858A86EE056A68EE878A39EEC77ACF
:10239800E6EE078A30E08B7808EE903AF8EE688A25
:1023A800C8EE858A28E000BF4400002054030020BE
:1023B800000000206802002000007A4400247449CC
:1023C8009A99993E62060020000000001E00002035
:1023D8000000C8428A0000206B0600202C00002064
:1023E800440300205C00002090000020EC02002044
:1023F80010000020F7EE008A2BB20CEE903AAB4B9F
:10240800F8EEECCAB3F90030CCEEAACAC3B1A84BB7
:102418001B78ABB1022C13D1F4EEEC6AF1EE10FA92
:1024280003DB36EEEC8A38EE088AF4EEEC6AF1EE5D
:1024380010FA05D536EEEC8AF8EE007A28EE278AEF
:102448004FF080435C6A9B484FF4004106F02CFD36
:10245800012808D14FF0804340F2ED225B6ACBEBB4
:1024680003039342EFD94FF08043B1EE488A5B6A89
:10247800914E924D1B1B009304F0F0FD904A914B36
:1024880092ED005A904AD3ED007AB2F9002093ED0C
:10249800023ADFED8E4A8E4C05EE902AF8EEE55AA8
:1024A800B0EE694A85EEAA2A804AB2F800C0804A8E
:1024B80092F80080874A1178874A01F0FD0A92F85D
:1024C8000090A8EE274AD3ED017A844BD3ED002A79
:1024D800D3ED011A93ED021A814BF0EE693A1878A0
:1024E800804BE8EE273A00EB400003EB800075EEE6
:1024F800244A00231A467C4F9FED7CDA96ED007A39
:10250800DFED7B7ADFF830E2D0ED000A1F44D7ED2B
:10251800006A784F1F4497ED00EA774F1F4497ED04
:10252800000A764F1F44D7ED00FA754F2FEE8D6ADB
:1025380064EE266AA7EE276A1F449E4466EEA8EA60
:102548003FEEC67ADFED6F6ADEED00DAB5EEC07AEF
:10255800F1EE10FAD8BFB1EE477AB4EEE67A97ED0D
:10256800007A77EE600A2FEEAD7AF1EE10FA70EE8F
:10257800870AF0EE086AC7ED000A634F80ED007A1B
:102588001F4497ED00FAC8BFB0EE6F6AC0EEA60A06
:10259800022AF0EE4F6AE6EE6D6A23EE8EEA86EDC9
:1025A800006A2EEE28EA3FEE477AF0EE66DA17D098
:1025B800564F03EB070E564FDEED006A1F4497EDAA
:1025C800006A36EEC66ADFED536A86EE266ADFEDEC
:1025D800526AAFEEA66ADFED516A9FEE266A01E005
:1025E8009FED576A022A67EE2E6A14D026EE22BAA9
:1025F800BEEE007AB4EEC7BAF1EE10FA09D4B4EE22
:102608004CBAF1EE10FAB6EE007AC8BFB0EE47BA8F
:1026180001E0B0EE47BAF5EEC0DAF1EE10FA09DDE6
:102628009FED3F7AF4EEC7DAF1EE10FA4CBF0127BE
:10263800002708E09FED3B7AF4EEC7DAF1EE10FAD6
:10264800CCBF01270027C7B1374F94ED007A1F444C
:1026580097ED00AA3DEE877AF1EE4ADAB4EEED7A0C
:10266800F1EE10FA07D4B4EECA7AF1EE10FAD8BF38
:10267800B0EE47AA01E0B0EE6DAA022A64D02B4F53
:102688009FED2B7A1F4497ED009A36EE099AB4EE27
:10269800C79AF1EE10FA55D4B4EE6B9A9FED257AED
:1026A800F1EE10FAC8BFB0EE479A4DE01A040020C8
:1026B8005D060020005400408C0200202403002006
:1026C8009C1600204C00002032000020A69B443BB2
:1026D8004803002065060020600600203400002022
:1026E80067060020A00200209C000020CDCC4C3FB3
:1026F800CDCC4C3E7C000020700000208C160020C1
:10270800040300200AD7A33C68020020BC1600205E
:10271800980200200040BB439A99193F8FC2F53FA9
:10272800CDCCCC3ECDCCCCBE20000020F802002081
:102738009A9999BE9A99993EEC0200200000FA44B1
:1027480000000000B0EE479AF4EEC24AF1EE10FA2B
:1027580007D5BCF1000F02D1B8F1000F1ED0022935
:102768001CD11FED0A7A85EE877A3CEE876AB4EEB3
:10277800C65AF1EE10FA0ED83CEEC77AB4EEC75A34
:10278800F1EE10FA07DBBCF1000F04D0B8F1000F2E
:1027980001D0022902D0B9F1000F03D11FED189A18
:1027A800B0EE49AA022A18BFAF4FDFF834E384ED30
:1027B80000AA1CBFFF1887ED009AAC4F1F4497ED85
:1027C800007A30EEC77A9E4467EE277A9EED007A4B
:1027D800E7EE0D7AB0EE087ACEED007A2AEE0EAA70
:1027E80018BF29EE219A67EE877ABAF1000F02D056
:1027F800022A40F03E84B0EE697AA8EE037A0129F5
:1028080020EE070A20EE280A67EE807A03D1022A12
:1028180001D067EE817A022AC7ED000A36EE8A7A7D
:102828000FD037EE677A012985ED007A40F02684CB
:102838003BEE097A002777EE677A2760C5ED007AC4
:1028480016E077EE677A9FED8A7AF4EEC77AF1EEB2
:1028580010FA09D4F4EE6B7A9FED867AF1EE10FA4D
:10286800C8BFF0EE477A01E0F0EE477AC5ED007A8E
:1028780004330C2B02F1010206F1040605F10405EC
:1028880004F1040400F104007FF435AE7A4A7B4F6A
:1028980013787B4C0133DBB2032B08BF0023137082
:1028A8003B780A2B774B40D9774D95F90020012AC0
:1028B8003BD11A683AB94FF080424FF47A71526AA4
:1028C800B2FBF1F21A6019684FF080424FF47A7047
:1028D800526AB2FBF0F2521A6C49097848438242B4
:1028E8006B496C4A14D2107890B96B4B9FED6B7A98
:1028F800B3F9003007EE903AF8EEE77A684BC7EE86
:10290800AA7A01221A7077EE877AC1ED007A0EE072
:102918000120107000200022086062482270022105
:102928002A701A6006F020FA01E000221A60237863
:102938005D4D002B40F01F815C4A1378F92B04D8B9
:10294800397827299CBF013313704F4E96F9003010
:10295800012B19D1564F4FF080423968526A4FF413
:102968007A73B2FBF3F309B93B600DE05B1A642B91
:102978000AD94FF000084B4886F8008002214246E9
:1029880006F0F2F9C7F8008096F90020002A40F016
:10299800EF814849DFF8F880474FD8ED017A98ED84
:1029A800007AD8F80800DFF83C91444E00230B6009
:1029B80043490B6043490A704349B6EE088A4860A8
:1029C800C1ED007A414828490360B4EEC87AF1EEB7
:1029D80010FA0B6043604B6083608B6040F3B680F5
:1029E800F4EEC87AF1EE10FA02DD3B88013308E014
:1029F800BEEE087AF4EEC77AF1EE10FA03D53B88FA
:102A0800013B3B8000E03A80B7F90030002BB8BFAB
:102A18005B42FA2B1EDD01222248022106F0A4F9AE
:102A2800254B2B4AB3F90030002B2A4BC8BF9FED2A
:102A38002A7AD3ED007AD6BF9FED287A77EE877A87
:102A480077EEC77AC3ED007A0123137000223A802B
:102A580089F80030D8ED027AF4EEC87AF1EE10FA6F
:102A680042DD338801334AE0F80200206403002085
:102A78009A9999BE9A99993E670600204A000020C3
:102A8800680600201C0300206D0600201D000020A1
:102A98009C1600206F060020320000200AD7233C35
:102AA80065060020000400486E0600206A06002023
:102AB800880200207C0300201E0400201C06002041
:102AC8001003002060060020800200204803002038
:102AD8006606002098020020CDCC4C3ECDCCCC3DE3
:102AE800380300205B060020BEEE087AF4EEC77AB1
:102AF800F1EE10FA4ABF3388002303F1FF33338025
:102B0800B6F90030002BB8BF5B42FA2B20DD01225A
:102B1800BB48022106F028F9BA4BDFEDBB6AB3F9CE
:102B28000030BA4A002BBA4BCBBF93ED017AD3EDF4
:102B3800017A77EE267A77EEE67AC3ED017A0123F9
:102B480013700022328089F8003001E03A80328028
:102B580099F80030AF49002B00F00A810133DBB24D
:102B68007D2B0B7040F0048100220A70A4480221DA
:102B780006F0FAF8FCE0A84B1B78002B40F0F88030
:102B8800A64EB6F90030B3F5967F0ADBA44A92ED5B
:102B9800007AF1EE087AB4EEE77AF1EE10FA40F135
:102BA800E780A04A002111609F4A92F9001000298D
:102BB80040F099809D480178FA2940F0948039784E
:102BC800092900F2908007EE903AF8EEE77A9849E2
:102BD800C7EEAA7A91ED007AB4EEE77AF1EE10FA30
:102BE80002D82978012913D09249DFED936AB1F907
:102BF800001007EE901AF8EEE77AC7EEA67ADFED36
:102C08008F6A77EEE67AB4EEE77AF1EE10FA0AD830
:102C18008B49B1F9001011B98A49097849B38A4931
:102C28000978022925D18349DFED886AB1F90010B6
:102C380007EE901AF8EEE77AC7EEA67A7CEEA76A56
:102C4800B4EEE67AF1EE10FA4DD87CEEE7CAB4EEAF
:102C5800EC7AF1EE10FA46DB7949B1F90010002957
:102C680041D07849097800293DD077490978022967
:102C780039D17749D1ED007AF5EEC07AF1EE10FA44
:102C880007DDB3EE0E7AF4EEC77AF1EE10FA07D448
:102C98001CE0BBEE0E7AF4EEC77AF1EE10FA15DD01
:102CA800D1ED017AF5EEC07AF1EE10FA07DDB3EE58
:102CB8000E7AF4EEC77AF1EE10FA0CD406E0BBEE09
:102CC8000E7AF4EEC77AF1EE10FA04DC5E49097860
:102CD80011F0FD0F07D15F4F0121117039700021EC
:102CE80001705D48017092F90020012A40D1514AD3
:102CF800B2F9002007EE902AF8EEE77A4C4AC7EEC0
:102D0800AA7A92ED007A554AB4EEE77AF1EE10FA13
:102D180013D54B49B1F9001011B94A49097819B1CD
:102D280049490978022908D007EE903A9FED427A7E
:102D3800F8EEE77AC7EE877A08E0494BB3F9003036
:102D480007EE903AF8EEE77AC7EEAA7A2C48022105
:102D5800C2ED007A012206F007F8B6F9003007EE56
:102D6800903AF8EEE77A3F4BC7EEAA7AC3ED007ABD
:102D78002B78002B7BD1324BB3F90030002B76D166
:102D8800304B1A78002A72D12A4B2949B3F90030FE
:102D980007EE903AF8EEE77A334BC7EEAAAAD1EDE0
:102DA800007AF4EEEA7AF1EE10FA23D8D1ED037A3C
:102DB800B6EE087AF4EEC77AF1EE10FA02DD1A8858
:102DC800013209E0BEEE087AF4EEC77AF1EE10FAA5
:102DD80044BF1A8802F1FF321A80B3F90030B3F504
:102DE800487F01DD012303E013F5487F3FDA002324
:102DF80023703CE01A803AE00023009337E000BFDC
:102E0800000400481C060020CDCC4C3E660600207D
:102E1800980200205B0600201C0000200C00002007
:102E280044030020880200206D0600206A06002066
:102E38009C1600203200002000007A440AD7233C68
:102E48001A0400205D060020650600200000FA44F0
:102E5800BC1600205C0600206F0600207C030020C2
:102E68006000002010030020260400200094864EF5
:102E78003378142B01D8FDF731FF844D2B7813B923
:102E8800834B1B887BB1834A4FF080441068636A88
:102E98004FF47A71B3FBF1F31B1A0A2B05D9636A55
:102EA800B3FBF1F3136000F0FDFFFDF75DFF7A4916
:102EB8004FF080470A687B6A04464FF47A70B3FB88
:102EC800F0F39B1A642B46D932789FED747A01325D
:102ED80032707B6AB3FBF0F30B604FF0A043D3ED85
:102EE800107A6F4B2A78D3ED006AF8EE677AC7EE4E
:102EF800877A9FED6C7A67EE877A9FED6B7AE6EEBC
:102F0800877AC3ED007A62B112F0010267484FF088
:102F1800020118BF012205F027FF2B78013B2B7017
:102F280019E0634B1B78B3B1624E30780A23B0FBCB
:102F3800F3F103FB110313F0FF0F08BF01225B48F5
:102F4800022105F011FF33785A4A0133DBB2FA2B1C
:102F580008BF00231370584A584900231370584A71
:102F6800096813604FF08042526A521A55498A42E2
:102F780048D89946984618461E461A46DFF860E132
:102F88005FFA89F70A2179430EEB010CBCF802A01D
:102F9800BAF1C80FF4461CD90A21524401FB07FABA
:102FA800D4443EF80AE0BCF80410BCF806C09E45BC
:102FB80088BF5FFA8EF3DFF828E10E440A2101FB8F
:102FC80007E760443989884538BF884609F101090F
:102FD800D4E73EF801100029DED13949C1F8008054
:102FE8003549C82A0B700FD9B2FBF7F307EE903AB0
:102FF8009FED357A2A4BF8EE677AC7EE877AC3EDEC
:10300800007A01E018461E46304B9FED317A1E606B
:10301800304B18604FF080435A6A0BF201439B1AF9
:10302800009A1344234407EE903AF8EE677A2A4A46
:10303800C7EE877AFCEEE77A17EE903A13704FF0F6
:1030480080435B6ACBEB0303B3F57F7FF7D32B7821
:10305800002B7EF468AF0E4B1B88002B7EF463AF09
:103068001E4B1B78012B7EF45EAFFEF729FEFEF7A0
:103078005ABF01297FF4CFABFFF7CBBB03297FF4FD
:10308800F7ABFFF7D5BB00BF4A0000204000002087
:103098002C0100207C020020200300209A999742EE
:1030A80044030020CDCC4C3ECDCC4C3F000400481E
:1030B8001C000020610600205E060020740300202A
:1030C800300300201FA107000000C8427003002041
:1030D8000000244118030020640600206606002032
:1030E800441600204840082310F0800F03F1FF33F6
:1030F8004FEA400018BF80F0070013F0FF03C0B28A
:10310800F2D17047013938B54418451E0021A5424F
:1031180005D015F8010FFFF7E5FF0146F7E7084668
:1031280038BD4FF09042936943F4E0739361D2F84D
:10313800183443F4404343F00103C2F8183470478D
:103148004FF09042138D9BB243F4E0731385B2F8AD
:1031580028349BB243F4404343F00103A2F82834D7
:1031680070470000F8B50746FFF7DBFF4FF08043D4
:10317800134D5B6A1A332B604FF08042526A9A42B1
:10318800FAD3002647FA06F3DB0702D4FFF7C9FF94
:1031980001E0FFF7D5FF2C681A342C604FF080430C
:1031A8005B6AA342FAD30136082EEBD11A34FFF733
:1031B800C7FF2C604FF080435B6AA342FAD3F8BD87
:1031C8008403002007B54FF4E073009301238DF8C2
:1031D800043003238DF80530694600234FF09040F2
:1031E8008DF806308DF8073005F07EFD4CF20103AE
:1031F80004480093694605F077FDFFF7A1FF03B087
:103208005DF804FB000400482DE9F043604A614B77
:1032180095B0054613F8011F02F8011D5E498B425F
:10322800F8D100244FF4C06302264FF0030801A927
:103238004FF0904001938DF808608DF809808DF863
:103248000A408DF80B4005F04FFD4FF090400921E2
:10325800072205F08EFD0C2707224FF090400A2127
:1032680005F087FD0DEB07014C48039504940125F3
:10327800059406940894079706F0F4F92523684600
:103288008DF800308DF801508DF802508DF80350FC
:1032980006F0ACFA2A464148414906F065FA294643
:1032A8003E4806F03BFA09A805F07CFB4FF0800980
:1032B8003C480F9410940D94CDF83890139405F071
:1032C800DBFA394B09934FF48073ADF83030374B44
:1032D8000A93102309A90B93324811944FF4005311
:1032E800129305F041FB0E238DF800306846052344
:1032F8008DF801308DF802408DF8035006F076FA0B
:1033080031462A46274805F065FB2A4649462348A0
:1033180006F022FA4FF4806301A9254801938DF83D
:1033280008608DF809808DF80A508DF80B5005F06B
:10333800DBFC07221E480A2105F01BFD29461D4813
:1033480006F001FA0DEB07014FF4E1331948039336
:103358000494059406940894079706F083F92723A4
:1033680068468DF800308DF801508DF802608DF8B0
:10337800035006F03BFA2A460E48094906F0F4F9CC
:103388000C48294606F0CAF915B0BDE8F08300BF1D
:1033980022170020ABF7FF1FB7F7FF1F00380140C7
:1033A800050105004400024028380140221700208A
:1033B800000400480048004010B50D480D4906F0CB
:1033C80006FA0B480C4906F0E6F978B108480A49AC
:1033D80006F0FDF9094B06481C78621C1A7006F0C5
:1033E800AEF9074B1855074B00221A8010BD00BFD5
:1033F800003801400003030005010500A007002074
:10340800A60700204406002010B50D480D4906F017
:10341800DEF90B480C4906F0BEF978B108480A49AC
:1034280006F0D5F9094B06481C78621C1A7006F09C
:1034380086F9074B1855074B00221A8010BD00BFAC
:10344800004800400003030005010500FE0F0020AE
:10345800F50E00204206002030B50F4C0F4A2078A8
:103468001378B8B90E490978994213D08CBF1170F6
:1034780010700C4A0C484FF0010525708CBFCC1A0F
:10348800C3F580741344C36001214460BDE8304033
:1034980005F095BA30BD00BFF20A0020EC08002004
:1034A800E8080020221700204400024010B5094C0B
:1034B80023689B040DD50848002105F080FA4FF4D5
:1034C80000536360054B00221A70BDE81040FFF7F7
:1034D800C3BF10BD0000024044000240F20A0020B1
:1034E800064B1B781BB9064B064A1B7802E0064BB5
:1034F800064A1B781078181AC0B27047B800002026
:10350800A1070020F50F0020A00700207107002068
:103518000C4B187848B90C4A0C4913780978994229
:103528000FD0591C11700A4A08E00A4A0A49137850
:103538000978994204D0591C1170084AD05C704728
:1035480000207047B8000020F50F0020A1070020D8
:10355800FF0F002071070020A0070020A607002009
:10356800F8B52A4B1B68052B294B4BD129482A490A
:1035780002780C789442294A40D00078087028498B
:1035880028480D6800241C70274B14701A8803887B
:10359800002D39D0D21A92B2102A28BF1022002A40
:1035A80032D0224D2C80224D2C602E463768204C7C
:1035B8005D1C9742ADB20ED2C3F30903DFF878E081
:1035C80027681EF803E01B4B03F807E02368013364
:1035D80023602B46EAE72268038000230B60154826
:1035E800C02192B206F022FE2168012089B206F0BD
:1035F8002BFF0120BDE8F84006F08ABE01211970B2
:103608001170F8BD01221A70F8BD00BF0404002033
:10361800B900002037160020A7080020B8000020B5
:10362800AC000020200600204806002040060020AC
:103638003C1E0020A8080020F50A0020084A13684C
:1036480003441360074A138801331380064A13881A
:10365800591C1180C3F30903044AD054FFF7FCBE78
:10366800880300202606002048060020F50A0020CE
:103678000A4B1B7802460BB9FFF7E0BF08490B68F5
:1036880003440B6007490B8801330B8006490B780C
:10369800581C08700549CA54FFF7DEBEB800002060
:1036A8008803002026060020E808002022170020B2
:1036B80070B51B4B1B68ABB104F0FCFD19480678CC
:1036C800002319490C68F2185D1CDBB2A342D2B280
:1036D80005D21649C95C164B99542B46F1E70023CD
:1036E80002700B60FFF7FCFE90B102210022114826
:1036F80005F03AFBFFF70CFF0446FFF733FD2046C1
:10370800FFF7B6FF0B480221012205F02DFBE9E780
:10371800054B1B68002BCCD1FFF722FFC9E700BF80
:10372800B4000020A1070020401E0020F11D002049
:10373800FF0F002000040048194B2DE9F04F194EE7
:10374800194DB3F800C03768B5F800806346002209
:10375800CCEB080402F10109D2B21C4403F1020EB9
:103768008A42A4B21FFA8EFE12DA30F812204FEA0B
:10377800122A5AFA82F4C3F3090B0133C3F309037B
:1037880027440A4C04F80BA0E25473464A46DFE784
:10379800034A37602C80BDE8F04F1380FFF75CBE0A
:1037A800480600208803002026060020F50A00208D
:1037B8002DE9F0471A4B1B7886468C4643B1194CC5
:1037C80019481A492768B0F800900A78002303E0DE
:1037D800BDE8F047FFF7B0BF09EB430503F1010867
:1037E800DBB26345ADB214DA3EF81360DFF840A0EF
:1037F800350A55FA86F6EDB20AF802503744561CD7
:10380800F6B21EF813300AF806300232D2B2434636
:10381800E2E70A7027600580BDE8F047FFF71CBEA5
:10382800B80000208803002026060020E8080020B1
:10383800221700200D4A30B51368040A54FA80F1A3
:103848000B4413600A4A0B491388023313800B8810
:10385800094AC3F3090554559C1C0133C3F30903F2
:103868000C80D054BDE83040FFF7F6BD8803002037
:103878002606002048060020F50A002010B5104A48
:1038880012781AB9BDE81040FFF7D4BF0D49020AF3
:103898000B68C0B2141823440B600B490B4C0B88FF
:1038A80002330B8023780A49D2B2CA549A1C0133D6
:1038B800DBB22270C854BDE81040FFF7CDBD00BF91
:1038C800B80000208803002026060020E808002011
:1038D8002217002073B5002306460C465D1CDBB298
:1038E800A34211DA06EB8303D3ED007A9FED077A42
:1038F80067EE877AFDEEE77ACDED017ABDF8040030
:10390800FFF798FF2B46E9E702B070BD00007A4444
:1039180073B5114B1B7806460C4623B902B0BDE8B7
:103928007040FFF7D7BF00235D1CDBB2A34211DA5A
:1039380006EB8303D3ED007A9FED087A67EE877A6A
:10394800FDEEE77ACDED017ABDF80400FFF796FFAA
:103958002B46E9E702B070BDB800002000007A44A9
:10396800F0B52DED028B052083B0FFF781FE724C78
:10397800724D9FED738A734F9A20FFF779FE0026E8
:103988000821714826602E80FFF7C2FF6F4B187818
:10399800FFF76EFE6E4BD3ED007A67EE887AFCEE89
:1039A800E77ACDED017ABDF80400FFF767FF6948B3
:1039B8000321FFF7FDFE03216748FFF7F9FED7ED66
:1039C800007A67EE887AFDEEE77ACDED017ABDF8E8
:1039D8000400FFF753FFD7ED017A67EE887AFDEE12
:1039E800E77ACDED017ABDF80400FFF747FFD7ED80
:1039F800027A5A4F67EE887AFDEEE77ACDED017AC2
:103A0800BDF80400FFF73AFF554B1888FFF736FF5B
:103A1800544B1888FFF732FF534B1878FFF728FEEE
:103A2800D7ED007AFCEEE77A17EE903AC3EB431035
:103A380003EB8000C00080B2FFF720FF3046FFF79D
:103A480017FE4A484A4E0321FFF762FF49480321FF
:103A5800FFF75EFF48480221FFF75AFF0221474857
:103A6800FFF756FF464B1878FFF702FED7ED007AAE
:103A7800FCEEE77A17EE903AC3EB431003EB8000B5
:103A8800C00080B2FFF7FAFE06213E48FFF790FE1D
:103A98003D4BD3ED007AFCEEE77A17EE903AC3EB94
:103AA800431003EB8000C00080B2FFF7E7FE374BFE
:103AB8001878FFF7DDFD30460521FFF779FE06F19E
:103AC8000A000521FFF774FE06F114000521FFF72F
:103AD8006FFE06F11E000521FFF76AFE06F12800B9
:103AE8000521FFF765FE052106F13200FFF760FEAC
:103AF800274B1878FFF7BCFD264B1888FFF7BEFE4A
:103B0800254B1888FFF7BAFE244B1888FFF7B6FE36
:103B1800234B1888FFF7B2FE224B1888FFF7AEFE3A
:103B280023682888B3FBF0F0C0B203B0BDEC028B69
:103B3800BDE8F040FFF79CBD880300202606002062
:103B48000000C842BC1600209C1600206D0600200C
:103B580044030020CE160020C816002014030020BD
:103B68004C0600202C0100204A0000208C16002062
:103B780044160020E4160020980200203C1600207D
:103B880065060020640000207803002064060020F9
:103B9800180400200C04002016040020180300203C
:103BA800240400201C0400202DE9FF41794E7A4F9F
:103BB800B37A327A757ADFF87882333314321B0499
:103BC80043EA0223F27A66321A430C3D42EA05635D
:103BD800724A15685B1B5D424FF000044FF0050008
:103BE8005D41ADF80840ADF80A40ADF80C40FFF76C
:103BF8003FFD7820FFF73CFD69483C600321A8F8A9
:103C08000040FFF785FE67480321FFF781FE6648FD
:103C18000321FFF77DFE65480321FFF779FE64481D
:103C28000221FFF775FE63480321FFF771FE624822
:103C38000321FFF76DFE03216048FFF769FE604B23
:103C48001888FFF71BFE5F4B1888FFF717FE5E4BBF
:103C58001888FFF713FE5D4B1878FFF70FFE5C4BD3
:103C68001888FFF70BFE5B4B1888FFF707FE5A4BC7
:103C78001888FFF703FE594B1888FFF7FFFD584BCC
:103C88001888FFF7FBFD574B1888FFF7F7FD564BD1
:103C98001878FFF7EDFC032102A8FFF789FD534BC5
:103CA8001878FFF7E5FC524B1878FFF7E1FC514B09
:103CB8001878FFF7DDFC504B1878FFF7D9FC4F4B0D
:103CC8009FED4F7AD3ED007A67EE877AFCEEE77ABC
:103CD800CDED017ABDF80400FFF7D0FD494B187807
:103CE800FFF7C6FC305D0134FFF7C2FC0C2CF9D19C
:103CF8006620FFF7BDFC03214348444CFFF708FE4C
:103D0800434B1878FFF7B4FC424B1878FFF7B0FC28
:103D1800414B1878FFF7ACFC2846FFF7A9FC3F4B4E
:103D28001878FFF7A5FC2078FFF7A2FC60783C4CD8
:103D3800FFF79EFC2078FFF79BFC6078FFF798FC64
:103D4800A078FFF795FCE078364CFFF791FC364BEE
:103D58001878FFF78DFC2088FFF790FD6088FFF743
:103D68008DFDA088314CFFF789FD2078FFF780FC96
:103D78006078FFF77DFCA078FFF77AFCB8F80000C0
:103D88003B68B3FBF0F0C0B2FFF772FC04B0BDE8CB
:103D9800F08100BF16170020880300208C03002044
:103DA8009C0000207C0000207000002034000020CF
:103DB8009802002010000020900000200000002041
:103DC800420000202004002088000020ED08002088
:103DD8005800002032000020620000204800002027
:103DE80060000020A80000205A0600209816002035
:103DF80099160020D4160020F01600204400002058
:103E080000007A444B0000204C0000201E000020D7
:103E1800140400201D000020311600206206002036
:103E28008A0000202C0000206B0600205C00002087
:103E38002606002007B514238DF8043001A80023B6
:103E48008DF8073005F0D2FC2A2301A88DF804303C
:103E580005F0CCFC024B01221A7003B05DF804FB9C
:103E6800FD0F002073B50E4C2378BBB114238DF8D9
:103E7800043000250223012601A88DF805308DF8AD
:103E880006508DF8076005F0B1FC2A2301A88DF8CB
:103E980004308DF8056005F0A9FC257002B070BDEE
:103EA800FD0F00202DE9F04F924B1B6885B0ABB198
:103EB80004F000FA904A1678002390480468F11834
:103EC8005D1CDBB2A342C9B205D28D48C05C8D4BE4
:103ED80058542B46F1E70023117003608A4D2B7864
:103EE800B3B18A490A780132D2B2022A0A700FD1D4
:103EF800874A0620013B00FB03235A88501E2628C8
:103F08009CBF01325A80834A00232B7013700B70B8
:103F1800814B0193B3F90020012A04D07F4BB3F9F8
:103F28000030012B23D17E4B188800BB7D4E784C86
:103F3800337806225A43A718A15A013189B20329B6
:103F480001D8A15213E0A0527A88272A03F101036D
:103F580005D82B700123BB806C4B187007E0DBB2CF
:103F6800062B5AD1307002E06F4B013119706F4B3C
:103F78006F4A18782F781378114683424FD06D4EC8
:103F88005C1C16F803E0E3B2002FF6D0DFF884815A
:103F980013705E4E98F8002000233370624B1AB9F4
:103FA800012188F800101A701978634C092904F85F
:103FB80001E0D9D12046FFF7A5F8637A83421ED1E4
:103FC8000A23013F5D4A21785F43D319D1536178B1
:103FD800A27842EA01225A80E178227942EA012253
:103FE8009A806179A27942EA0122DA80E179227A1B
:103FF80042EA01221A81FCF75FFD514B18602B78C9
:104008005A1E434B062101FB02335A880AB1013A72
:104018005A8000232B7088F800303370A7E70B70A4
:10402800FFF75EFADFF84481002800F02C83FFF7E1
:104038006FFAB8F800300546002B4BD110280AD18A
:104048000122A8F800203F4A13703F4AFF2111704F
:104058003E4A1360E4E7202802D1FFF781FCDFE73E
:10406800302802D1FFF7A0FDDAE74128D8D1384B34
:104078001C78002CD4D13748214605F09BF93648E6
:10408800214605F0D3FA3548214605F0CFFA3448E1
:10409800214605F0CBFA3348214605F0C7FA2E48E9
:1040A800214605F087F92D48214605F083F92C486B
:1040B800214605F07FF921462A4805F07BF902F0F0
:1040C8008DF82846FFF7D4FAFFF74AFAFFF77AF88F
:1040D800FFF7EEFADFF86C90234C99F80020DFF830
:1040E80068A0A054012A264642D1637802338AF890
:1040F800003046E0B4000020A1070020401E002048
:10410800F11D0020FF0F00205F060020E9080020B5
:10411800F2160020A30700205800002014040020F5
:104128002C0100206906002000110020FE0F00204D
:10413800EB080020F50E0020011100204416002095
:1041480074030020F10A0020B00000208003002042
:104158005C06002000100040002C01400040014097
:104168000044014000480140EF0900201E060020DD
:1041780007D99AF80030934281BFC6490B681B18CB
:104188000B609AF80030934240F077822378052B31
:1041980040F06982BF4B023A1B68B3FBF2F2AA42B5
:1041A80040F06182BC4B93ED007AF1EE087AB4EEF0
:1041B800E77AF1EE10FA40F14A82B84BDD7A93F8CB
:1041C80008B09F7A5B7A009302F008F8B44800229E
:1041D800B318DFEDB47A93F802E0DB7843EA0E23F4
:1041E80007EE103AB8EEC77A023287EE277A062A27
:1041F800A0EC017AECD1AC480022B318023293F853
:1042080008E05B7A43EA0E2307EE103AB8EEC77A65
:10421800062A87EE277AA0EC017AEED1A34800227D
:10422800B318023293F80EE0DB7B43EA0E2307EE65
:10423800103AB8EEC77A062A87EE277AA0EC017AF8
:10424800EED19B480022B318023293F814E05B7D4C
:1042580043EA0E2307EE103AB8EEC77A062A87EE2D
:10426800277AA0EC017AEED192480022B3180232E4
:1042780093F81EE0DB7F43EA0E2307EE103AB8EE10
:10428800C77A062A87EE277AA0EC017AEED18A4807
:104298000022B318023293F824E093F8253043EA59
:1042A8000E2307EE103AB8EEC77A062A87EE277A69
:1042B800A0EC017AEDD1814900203218023092F841
:1042C8002AC092F82B207E4B42EA0C2207EE102AD5
:1042D800B8EEC77A062887EE277AA1EC017AECD1E6
:1042E80093F8300093F8312093F838E0019942EAC6
:1042F80000227448028093F8320093F8332042EA8F
:1043080000227148028093F8340093F8352042EA7D
:1043180000226E4802806E4893F83720027093F8A6
:10432800390040EA0E20088093F83A0093F83B30B1
:1043380043EA00236748012A038004D11BB2092BF2
:10434800DCBF0A23038094F83C2094F83D3062498E
:1043580043EA0223614A138094F83E2094F83F30E0
:1043680043EA02235E4A138094F8402094F84130CF
:1043780043EA02235B4A138094F8422094F84330BE
:1043880043EA0223584A1380584B94F844201A7081
:1043980094F8452094F8463043EA0223ADF80830F3
:1043A80094F8472094F8483043EA0223ADF80A30DD
:1043B80094F8492094F84A3043EA0223ADF80C30C7
:1043C8004B4B94F84B201A704A4B94F84C201A70B7
:1043D800494B94F84D201A70484B94F84E201A70A7
:1043E80094F84F2094F8503043EA022307EE103A2D
:1043F800B8EEC77A424B87EE277A002083ED007A21
:10440800404B94F851201A703318023093F852C078
:1044180093F853302A4A43EA0C2307EE103AB8EED1
:10442800C77A062887EE277AA1EC017AECD1364BB9
:1044380092F858001880354B92F85900187092F885
:104448005B3092F85A0043EA002092F85C3092F808
:104458005D2042EA03232E4A43EA0043106868B10C
:10446800009933370C393F0447EA016166350D433B
:104478000BF1140B45EA0B2B83454FD025490978DE
:10448800312953D8136024480221002204F06CFC1F
:104498004CE000BF800300204403002016170020D2
:1044A8009C00002000007A447C000020700000205E
:1044B80034000020100000209000002000000020A0
:1044C800EF0900204200002020040020880000207E
:1044D800ED080020320000204C000020620000207F
:1044E8004800002060000020A80000205A06002094
:1044F8009816002099160020D4160020F0160020E7
:10450800440000204B000020140400201D0000205F
:104518008C030020FF100020000400485B4505D0F4
:10452800AA4A1378312B9CBF01331370A84B94F817
:104538005E201A70A74B94F85F201A7094F86010E8
:1045480094F86130A44A94F8690011708B4238BF1E
:104558000B465370A14B94F862201A7094F86320AC
:104568005A7094F864209A7094F86520DA709C4B1D
:1045780094F866201A7094F86A1094F8683094F8E1
:10458800672094F86B5043EA022241EA0020954BD9
:1045980094F86C105880904238BF5A8041EA05213F
:1045A8001A8099805B8899423CBF8E4A93808E4BD3
:1045B80094F86D201A7094F86E205A7094F86F2051
:1045C8009A70BDF908302BB9BDF90A201AB9BDF99E
:1045D8000C309BB10023854902AA31F8130032F848
:1045E8001320024421F813200133032BF3D1804B0D
:1045F80000221A605A607F4B00221A707E4BDFED52
:104608007F7A93ED007A7E4AB4EEE77AF1EE10FAFB
:10461800C8BFC3ED007A002313707A4A13707A4A30
:1046280013707A4A13707A4B00221A605A609A60A3
:10463800784B012405201C70FFF71AF82046FFF775
:1046480017F80620FFF714F80620FFF711F80520E1
:10465800FFF70EF80120FFF70BF80720FFF708F81F
:104668000720FFF705F8FF228AF800206A4A00238E
:1046780089F80030A8F80030136099F80030013349
:1046880089F80030CCE4B8F8003013B10133A8F849
:104698000030B8F80030B3F57A7F02BF5F4B0022D4
:1046A8001A80FEF75DFF574B93F90030012B5AD162
:1046B8005B4A5C4D13885C4E5C4CB3F57A7F3CBF1B
:1046C800013313802B88B3F57A7F3CBF01332B80ED
:1046D8003388B3F57A7F3CBF013333802388B3F541
:1046E8007A7F05D252490978012904BF0133238012
:1046F8001388B3F57A7F01D1FFF79CFB2B88B3F5BC
:104708007A7F07D100224B484B4905F02DF84B4BD7
:1047180001221A703388B3F57A7F0FD100224848F6
:10472800454905F021F8474B01221A70464B7D2276
:104738005A801A81DA819A825A831A842388B3F5B7
:104748007A7F40D13A4B1C78012C3CD13F48214616
:10475800002204F074FF3D480821002204F06FFF96
:104768003B4B1C702FE0354CFFF77CFB2278012A6D
:1047780007D13048304904F0F7FF2A4A0023138054
:104788002370304C2278012A07D12D482A4904F099
:10479800EBFF254A0023138023702D4D2B78012B26
:1047A80011D1234B1C78012C0DD1284821462246D3
:1047B80004F045FF22462548082104F040FF1B4A23
:1047C800002313802B7005B0BDE8F08FFF10002088
:1047D80031160020620600201E0000208A000020FA
:1047E8006B0600202C0000205C0000200E04002036
:1047F800980200203316002044000020E3A55B3F08
:104808006A0600206D060020680600206706002062
:104818000403002066060020800300201E060020F6
:1048280040060020440600204206002024060020FE
:10483800B51200200038014005010500F70F0020DF
:1048480000480040A2070020F2160020000800409F
:10485800A4070020F0B52E4C238823F001031B0485
:104868001B0C89B0238020460121002204F0E7FEBA
:1048780000222046082104F0E2FE264B1B88E36153
:10488800254B1B8823624FF400530025012602277D
:10489800019301A903234FF090408DF809308DF85A
:1048A80008708DF80A508DF80B6004F01DFA60232B
:1048B80003931A4BADF810601B780595AB4214BFF3
:1048C8002B463B46204603A9ADF81830ADF81C50DE
:1048D80004F0F0FD2046082104F020FE2046314671
:1048E80004F0A4FE7D23E3626562E56323889BB23E
:1048F80033432380204632464FF4006104F0A8FE7B
:1049080007483946324604F065F809B0F0BD00BFE3
:10491800000800404A06002046060020F60F002046
:104928005800024070B52C4C238823F001031B0467
:104938001B0C86B023802046002104F0EFFD2046A2
:10494800002104F073FE25480221002204F042F8F9
:1049580020464FF40061002204F07AFE03228DF80D
:1049680009201F4A4FF400531278019301250223AE
:104978008DF8083001A9002A08BF2B464FF0904057
:104988008DF80B308DF80A5004F0AEF94FF6FF732E
:10499800E362002363620826E3630A22204603A930
:1049A800ADF80E20ADF81230ADF81430ADF80C604B
:1049B800ADF8105004F0DFFD23889BB22B43238011
:1049C800204631462A4604F03AFE204629462A4621
:1049D80004F035FE06B070BD0008004058000240E3
:1049E800F60F002070B53E4B012290B01A7041B10D
:1049F800914208D0022908D0032914BF00240424B6
:104A080004E01D2402E00E2400E00924354B364D55
:104A180018700A224FF090400D2104F0AAF94FF6C1
:104A2800FF73ADF808402846002402A90393ADF8A7
:104A38001040ADF81240ADF80A4004F06DFC0121B9
:104A4800284604F0B7FC294803F016FF05A803F030
:104A5800A9FF274B0593274B0693102307934FF481
:104A68001673ADF8203080230A934FF480730B93AC
:104A78004FF480630C9305A94FF400531B480E9321
:104A880009940D940F9403F06FFF4FF40061012215
:104A9800284604F0DDFD02260F238DF8064001A804
:104AA80001248DF804308DF805608DF8074004F076
:104AB8009DFE1E2301A88DF804308DF805608DF841
:104AC80006408DF8074004F091FE0B4BEA691A8006
:104AD8000A4B2A6A1A80FFF725FF10B070BD00BF85
:104AE800B5120020F60F00200008004058000240D0
:104AF8003C080040221800204A06002046060020F4
:104B080038B5174B174C00251D70238823F0010377
:104B18001B041B0C238020462A46012104F08FFD2C
:104B28002A462046082104F08AFD0F4B1B88E361C2
:104B38000E4B1B8823622046294604F0EFFC2046D2
:104B4800294604F073FD2A460948022103F042FF72
:104B580020462A464FF40061BDE8384004F078BD8D
:104B6800B5120020000800404A0600204606002032
:104B7800580002402DE9F0470022414D002325F856
:104B880012300132B2F5167FF7D13E4A3E4F3F4E02
:104B980092F800E097F800C03078D9B201EB0C0227
:104BA800D2B2964545D0322B40D03949394811F810
:104BB800029002467C2122F8021B00F11804002111
:104BC80022F8021BA242FAD10124224604F1FF383E
:104BD80049FA08FA1AF0010F0ED122B9C1EB0408FC
:104BE8004FF07C0A03E0C1EB08084FF07E0A01325F
:104BF80020F818A0D2B208E0012A84BF0131C9B256
:104C0800C1EB0408002220F818200134092CDDD15A
:104C18000C2159430022541830F8128025F81480CA
:104C280001320C2AF7D101330120B6E73A7030700F
:104C380004E00B4687F800E03070C1B11BB2164C97
:104C480003EB43039B00E56020466360012103F00A
:104C5800B6FE01222046022103F0BCFE0F4A0023C3
:104C6800536213889BB243F00103138003E0074BA0
:104C78001970FFF757FE0A4B00221A80BDE8F0872B
:104C880022180020A6080020EE090020F30A0020C0
:104C9800EE080020280600205800024000080040C6
:104CA8002406002070B50E4A0E4C157823789D42D4
:104CB80015D1002313702370DCB28C4203F1010379
:104CC80003DA094D065D2E55F6E7084B14701B787C
:104CD8002BB9FFF7BFFDBDE87040FFF74BBF70BDB4
:104CE800A6080020EE090020EE080020F30A0020A4
:104CF80010B50C4C4FF4003003F074FE204600222F
:104D0800022103F067FE2046002103F058FE064A00
:104D1800138823F001031B041B0C1380BDE810400B
:104D2800FFF728BF5800024000080040044B054A1E
:104D38001844138800F8011C19441180704700BFFB
:104D480073070020220600202DE9F04F614B1A78E6
:104D580087B0802A8146019340F0B5808E2840F0C4
:104D6800B280FFF777FD5C4A138823F001031B0428
:104D78001B0C1380594B01221A700023584A002536
:104D880022F813500133602BF8D1564C0121E26010
:104D98002046636003F013FE20460221012203F03F
:104DA80019FE4D4A9FED507A556213884F499BB2C0
:104DB80043F0010313804E4B0D80D3ED007A4D4B29
:104DC80067EE877AB2EE047AC7EE877A1A680A2302
:104DD800B2FBF3F8484A1768B7FBF3F7474B1FFADB
:104DE80088FC1E68BAB2FCEEE77A0723CDED027A9A
:104DF800BDF80840B6FBF3F60291B3B2DFF804A1A0
:104E0800002105F80A1001352D2DF7D101207C214C
:104E180005930492CDF80CC0FFF788FF02208E217D
:104E2800FFF784FF5FFA84FB0420E021FFF77EFF91
:104E3800240A15205946FFF779FF16202146FFF767
:104E480075FF2F49097814311920C9B2FFF76EFF91
:104E58001B20F421FFF76AFF1C200121FFF766FFE2
:104E68001D205FFA88F1FFF761FFDDF80CC01E20F6
:104E78004FEA1C21FFF75AFF1F205946FFF756FF3C
:104E880020202146FFF752FF2120F9B2FFF74EFFFD
:104E9800049A2220110AFFF749FF2620F1B2FFF7F2
:104EA80045FF059B2720190AFFF740FF2C207D218D
:104EB800FFF73CFF029B28461978FFF737FF50465B
:104EC8002946FFF7EFFE019B83F8009007B0BDE885
:104ED800F08F00BFF90F002000080040F30A0020FF
:104EE80022180020580002400000C8422206002074
:104EF8004403002070030020180300203003002022
:104F08005E06002073070020034A04491378C8543A
:104F180001331370704700BF72070020710600202C
:104F280010B50446FFF7F0FF024B187820441870BC
:104F380010BD00BFEA08002038B5074D074C287897
:104F4800C043C0B2FFF7E0FF05482178FFF7AAFE8B
:104F580000232B70237038BDEA0800207207002058
:104F68007106002007B5ADF8060010200091FFF784
:104F7800D7FF9DF80600FFF7D3FF9DF80700FFF75E
:104F8800CFFF9DF80000FFF7CBFF9DF80100FFF76A
:104F9800C7FF9DF80200FFF7C3FF9DF80300FFF766
:104FA800BFFFFFF7C9FF03B05DF804FB2DE9F84325
:104FB800304D2B787E2B064658D11B2856D12E4FC4
:104FC800DFF8D480FFF746FC3B8823F001031B047D
:104FD8001B0C3B80294B4FF0010983F80090284BAC
:104FE80000241C805C809C80DC801C81C8F80C300C
:104FF8000523C8F804304046494603F0E0FC4A4619
:105008004046022103F0E6FC7C623B881D4A9BB2C5
:1050180043EA09033B80137814466BB91A4B9FED9A
:105028001B7AD3ED007A67EE877A4FF40470FCEEB2
:10503800E77A17EE901A0FE0012B07D1144B4FF4C3
:10504800007019680A23B1FBF3F105E0022B05D1C2
:10505800104B19684FF4C060FFF784FF2378094AA2
:105068000133DBB2032B08BF002313702E70BDE899
:10507800F88300BFF00A002000080040F30A00206F
:1050880022180020A5070020440300200000C84281
:1050980070030020180300205800024070B5134C1C
:1050A8004FF6FF730025064665622046E36201213C
:1050B8002A4604F0C4FA238823F001031B041B0CBE
:1050C8002380F31E022B0FD8094B012120460A46E4
:1050D8001E7004F0B4FA4FF496736562E362238895
:1050E8009BB243F00103238070BD00BF0014004051
:1050F800AA0000204FF0904330B51B8A980402D5CF
:105108002F4B1B7853B14FF090431B8A990407D457
:105118002B4B1B785A1E5342534102E0012300E0F7
:105128000023284A1178154661B9002B46D1264933
:105138000B7026490B7026494B62BB23CB620123B7
:10514800137030BD224A7D21D162204A1178072987
:1051580007D823B11C4C20788B40034323700131BE
:1051680011701378082B29D1194B4FF6FF72DA62A8
:1051780000232B70174B1B78032B09D1104B1B787E
:10518800012B1BD1104BBDE830401878FFF70EBF3C
:10519800042B08D10A4B1B7883B90B4BBDE8304070
:1051A8001878FFF7D1BD062B08D1054B1B782BB912
:1051B800054BBDE830401878FFF770BF30BD00BF21
:1051C800F60F0020F80F0020EF0A0020F40A002054
:1051D800000800400212002008B50F4B1A69110799
:1051E8000AD54FF6F7721A610C4B1B780BB9FFF70B
:1051F80081FF0B4B00221A80074B1A69D20709D589
:105208004FF6FE721A61054B1B781BB1BDE80840CA
:10521800FFF770BF08BD00BF00080040F80F00206E
:105228002406002037B5294C2369DB074CD54FF6F7
:10523800FE73236100254FF6FF7365622046E36223
:1052480001212A4604F0FBF923882148214A23F04A
:1052580001031B041B0C23801F4B00781168D3ED3E
:10526800007A1E4A1E4B157003281B6810D19FED4B
:105278001D7A67EE877A0A21FCEEE77ACDED017A8E
:10528800BDF80430B3FBF1F35B009BB231210DE0B4
:10529800042806D10A21B3FBF1F35B009BB242213B
:1052A80004E0052807D14B009BB25B21537043F300
:1052B800072311709370137833B10848032103B0A2
:1052C800BDE83040FFF7EEBC03B030BD001400402D
:1052D800AA0000201803002044030020FA0F002031
:1052E800700300200000C842344B354A70B50225CF
:1052F8009D700325DD7004251D7105255D7106254A
:105308009D710725DD712F4D2E5C2F4D0021012445
:105318000528117019705C702E7002D12B4B197012
:1053280070BD062802D1294B1C7070BD022806D119
:1053380002211970002159700121997001E00A2891
:10534800F6D0032806D100221A7002225A709870EB
:10535800012229E0042809D101221A7002225A7078
:1053680003229A700022DA70187120E00A2802D10C
:105378000123137070BD0B2803D102221A70012279
:1053880004E00C2807D101221A7002225A70002268
:105398009A70032208E00D280FD103221A70022206
:1053A8005A7001229A700022DA7004221A710522BA
:1053B8005A7106229A710722DA7170BD160100200F
:1053C80020150020BA000020021200201D14002021
:1053D800F0B5214D8BB0182300240746029303260D
:1053E8000223284602A98DF80C308DF80D608DF83F
:1053F8000E408DF80F4003F077FC2846314607220F
:10540800164E03F0B6FC07222846042103F0B1FC2F
:1054180004A90C23304601250893049705940694A3
:105428000794099404F01EF9262301A88DF8043086
:105438008DF805508DF806408DF8075004F0D6F920
:1054480030462A46064904F08FF93046294604F0CA
:1054580065F90BB0F0BD00BF0004004800440040EF
:105468000501050010B50B480B4904F0B0F90948CF
:105478000A4904F090F960B10648084904F0A7F910
:10548800074B04481C78621C1A7004F058F9054B45
:10549800185510BD00440040000303000501050035
:1054A800B8120020221500207FB5204D2049002287
:1054B800284604F059F926238DF8043004230024E3
:1054C8000DEB03008DF805308DF806408DF8074088
:1054D80004F08CF92846214604F020F94FF44043A3
:1054E8000126029302A903234FF090408DF80D3056
:1054F8008DF80C408DF80E608DF80F6003F0F4FB0A
:1055080032464FF090404FF4804103F02DFC28467E
:1055180022464FF4803104F00AF928464FF400314E
:10552800224604F004F904B070BD00BF00440040F6
:105538000501050070B51D4D8CB001A803F032FAC5
:105548000024802628460794089405940B94069610
:1055580003F092F9164B01934FF48073ADF81030B5
:10556800144B0293102301A9039328464FF40053C8
:105578000A93099403F0F8F911238DF800308DF897
:1055880002400523012468468DF801308DF8034058
:1055980004F02CF928462246022103F01BFA06489B
:1055A8003146224604F0D8F80CB070BD80000240A5
:1055B80028440040D21C00200044004008B506489A
:1055C8008021002204F0C8F8044802210022BDE826
:1055D800084003F0FFB900BF0044004080000240CB
:1055E800F0B51C4F87B0012408230225032638464E
:1055F80001A901938DF809608DF808508DF80A40CB
:105608008DF80B4003F070FB22463846314603F014
:10561800B0FB00230426ADF80E30ADF8123003A914
:1056280025234FF08040ADF81430ADF80C60ADF88C
:10563800104003F0A0FF314622464FF0804003F0AF
:10564800FEFF4FF080402946224603F0F8FF07B0DE
:10565800F0BD00BF000400484FF080400421002244
:1056680003F0EDBF10B50D4A11784FF080430129C2
:105678005B6B11D14FF09042128A12B2002A084A8D
:1056880001DA136010BD126806489B1A064A538057
:10569800064B00240470597010BD00BF0212002090
:1056A800A40300204A000020E6000020DE000020BD
:1056B8002DE9F04188B0012440F6080302250327AC
:1056C8005448019301A98DF808508DF809708DF898
:1056D8000A408DF80B4003F007FB48F204034FF033
:1056E800904001A901938DF80B4003F0FDFA494859
:1056F8003946224603F03DFB46480B21224603F07B
:1057080038FB4FF090402946224603F032FB4FF019
:1057180090400F21224603F02CFB00230A22ADF80B
:105728001430ADF81A304FF08040252305A9ADF8A4
:105738001620ADF81C304FF00408ADF8184003F0FF
:105748001AFF4FF0804005A90826ADF8148003F031
:1057580012FF4FF0804005A9ADF8146003F00BFF6D
:105768000C234FF0804005A9ADF8143003F003FF77
:105778004FF080402946224603F061FF4FF08040F9
:105788004146224603F05BFF31464FF080402246F7
:1057980003F055FF4FF080401021224603F04FFFE1
:1057A8001D4B1E789EBB4FF4C0434FF090400DEB4D
:1057B800080101938DF808608DF809708DF80A408A
:1057C8008DF80B5003F090FA30460D2103F0E3FA00
:1057D8000E21304603F0DFFA0D23039303A81023AC
:1057E8008DF811308DF810608DF8124003F004F92F
:1057F8000E2303A8039303F0FFF8282368468DF8C7
:1058080000308DF801508DF8034003F0EFFF08B029
:10581800BDE8F08100040048B51200207FB54FF0C4
:1058280080400221002203F00AFF4FF0804004214B
:10583800002203F004FF4FF080400821002203F00B
:10584800FEFE102100224FF0804003F0F8FE0423F2
:105858000024029302A810238DF80D308DF80C4017
:105868008DF80E4003F0C8F8052302A8029303F050
:10587800C3F80D2302A8029303F0BEF80E2302A872
:105888000225029303F0B8F80A2301A88DF8043022
:1058980017268DF805508DF8074003F0A7FF01A8DB
:1058A8008DF804608DF805508DF8074003F09EFFD1
:1058B80001A88DF804608DF805508DF8074003F0B5
:1058C80095FF04B070BD00004FF0804310B5042070
:1058D8005C6A03F013F9A8B1042003F01FF90A4B1E
:1058E8001B78012B0ED14FF09042128A12F0100F44
:1058F800064A01D0146010BD1268A41A044A148123
:10590800044A137110BD00BF021200209403002046
:10591800E6000020DE0000204FF0804310B505208F
:105928005C6A03F0EBF8A8B1052003F0F7F80A4B1E
:105938001B78012B0ED14FF09042128A12F0200FE3
:10594800064A01D0146010BD1268A41A044A548192
:10595800044A537110BD00BF0212002098030020B2
:10596800E6000020DE0000204FF0804310B50D2037
:105978005C6A03F0C3F8A8B10D2003F0CFF8174B09
:105988001A78012A0ED14FF090431B8A13F4005F56
:10599800134B05BF13491B681C60E31A02BF0B8138
:1059A800114B1A710E2003F0A9F8A8B10E2003F0CC
:1059B800B5F80A4B1B78012B0ED14FF09042128A92
:1059C80012F4804F064A01D0146010BD1268A41A60
:1059D800044A5481044A537110BD00BF02120020CA
:1059E8009C030020E6000020DE00002070B54FF088
:1059F8008043996B1E4B187830BB1E4B1B8A1C07C3
:105A080035D51D4C22688A1A93B240F6AC5293429F
:105A180002D91A4B187015E06FF4FA729A1892B2FC
:105A280040F2CE75AA420DD8154A10701348027874
:105A3800072A07D8134D0126AE5495190570124848
:105A480020F81230216070BD012810D1094B1A8A44
:105A5800094B02F0080292B20AB1196070BD084CF5
:105A68001B682270084ACB1A1380064B187070BD49
:105A78000212002000040048A00300201D15002089
:105A88004A000020DE000020E60000200B4A1278C1
:105A98004FF08043012ADB6B0ED14FF09041098A09
:105AA80011F0040F064901D00B60704709685B1AB2
:105AB80004498B80044B9A70704700BF0212002083
:105AC800AC030020E6000020DE0000200A4A12781D
